{
    "_format": "hh-sol-artifact-1",
    "contractName": "Collection",
    "sourceName": "contracts/Collection.sol",
    "abi": [
        {
            "inputs": [],
            "stateMutability": "nonpayable",
            "type": "constructor"
        },
        {
            "anonymous": false,
            "inputs": [
                {
                    "indexed": true,
                    "internalType": "address",
                    "name": "owner",
                    "type": "address"
                },
                {
                    "indexed": true,
                    "internalType": "address",
                    "name": "approved",
                    "type": "address"
                },
                {
                    "indexed": true,
                    "internalType": "uint256",
                    "name": "tokenId",
                    "type": "uint256"
                }
            ],
            "name": "Approval",
            "type": "event"
        },
        {
            "anonymous": false,
            "inputs": [
                {
                    "indexed": true,
                    "internalType": "address",
                    "name": "owner",
                    "type": "address"
                },
                {
                    "indexed": true,
                    "internalType": "address",
                    "name": "operator",
                    "type": "address"
                },
                {
                    "indexed": false,
                    "internalType": "bool",
                    "name": "approved",
                    "type": "bool"
                }
            ],
            "name": "ApprovalForAll",
            "type": "event"
        },
        {
            "anonymous": false,
            "inputs": [
                {
                    "indexed": true,
                    "internalType": "address",
                    "name": "previousOwner",
                    "type": "address"
                },
                {
                    "indexed": true,
                    "internalType": "address",
                    "name": "newOwner",
                    "type": "address"
                }
            ],
            "name": "OwnershipTransferred",
            "type": "event"
        },
        {
            "anonymous": false,
            "inputs": [
                {
                    "indexed": true,
                    "internalType": "address",
                    "name": "from",
                    "type": "address"
                },
                {
                    "indexed": true,
                    "internalType": "address",
                    "name": "to",
                    "type": "address"
                },
                {
                    "indexed": true,
                    "internalType": "uint256",
                    "name": "tokenId",
                    "type": "uint256"
                }
            ],
            "name": "Transfer",
            "type": "event"
        },
        {
            "inputs": [],
            "name": "LIMIT_PER_ADDRESS",
            "outputs": [
                {
                    "internalType": "uint256",
                    "name": "",
                    "type": "uint256"
                }
            ],
            "stateMutability": "view",
            "type": "function"
        },
        {
            "inputs": [],
            "name": "MAX_SUPPLY",
            "outputs": [
                {
                    "internalType": "uint256",
                    "name": "",
                    "type": "uint256"
                }
            ],
            "stateMutability": "view",
            "type": "function"
        },
        {
            "inputs": [],
            "name": "PRICE_PER_TOKEN",
            "outputs": [
                {
                    "internalType": "uint256",
                    "name": "",
                    "type": "uint256"
                }
            ],
            "stateMutability": "view",
            "type": "function"
        },
        {
            "inputs": [
                {
                    "internalType": "address",
                    "name": "to",
                    "type": "address"
                },
                {
                    "internalType": "uint256",
                    "name": "tokenId",
                    "type": "uint256"
                }
            ],
            "name": "approve",
            "outputs": [],
            "stateMutability": "nonpayable",
            "type": "function"
        },
        {
            "inputs": [
                {
                    "internalType": "address",
                    "name": "owner",
                    "type": "address"
                }
            ],
            "name": "balanceOf",
            "outputs": [
                {
                    "internalType": "uint256",
                    "name": "",
                    "type": "uint256"
                }
            ],
            "stateMutability": "view",
            "type": "function"
        },
        {
            "inputs": [
                {
                    "internalType": "uint256",
                    "name": "tokenId",
                    "type": "uint256"
                }
            ],
            "name": "getApproved",
            "outputs": [
                {
                    "internalType": "address",
                    "name": "",
                    "type": "address"
                }
            ],
            "stateMutability": "view",
            "type": "function"
        },
        {
            "inputs": [
                {
                    "internalType": "address",
                    "name": "owner",
                    "type": "address"
                },
                {
                    "internalType": "address",
                    "name": "operator",
                    "type": "address"
                }
            ],
            "name": "isApprovedForAll",
            "outputs": [
                {
                    "internalType": "bool",
                    "name": "",
                    "type": "bool"
                }
            ],
            "stateMutability": "view",
            "type": "function"
        },
        {
            "inputs": [
                {
                    "internalType": "string",
                    "name": "tokenURI",
                    "type": "string"
                }
            ],
            "name": "mintNFT",
            "outputs": [
                {
                    "internalType": "uint256",
                    "name": "",
                    "type": "uint256"
                }
            ],
            "stateMutability": "payable",
            "type": "function"
        },
        {
            "inputs": [],
            "name": "name",
            "outputs": [
                {
                    "internalType": "string",
                    "name": "",
                    "type": "string"
                }
            ],
            "stateMutability": "view",
            "type": "function"
        },
        {
            "inputs": [],
            "name": "owner",
            "outputs": [
                {
                    "internalType": "address",
                    "name": "",
                    "type": "address"
                }
            ],
            "stateMutability": "view",
            "type": "function"
        },
        {
            "inputs": [
                {
                    "internalType": "uint256",
                    "name": "tokenId",
                    "type": "uint256"
                }
            ],
            "name": "ownerOf",
            "outputs": [
                {
                    "internalType": "address",
                    "name": "",
                    "type": "address"
                }
            ],
            "stateMutability": "view",
            "type": "function"
        },
        {
            "inputs": [],
            "name": "renounceOwnership",
            "outputs": [],
            "stateMutability": "nonpayable",
            "type": "function"
        },
        {
            "inputs": [
                {
                    "internalType": "address",
                    "name": "from",
                    "type": "address"
                },
                {
                    "internalType": "address",
                    "name": "to",
                    "type": "address"
                },
                {
                    "internalType": "uint256",
                    "name": "tokenId",
                    "type": "uint256"
                }
            ],
            "name": "safeTransferFrom",
            "outputs": [],
            "stateMutability": "nonpayable",
            "type": "function"
        },
        {
            "inputs": [
                {
                    "internalType": "address",
                    "name": "from",
                    "type": "address"
                },
                {
                    "internalType": "address",
                    "name": "to",
                    "type": "address"
                },
                {
                    "internalType": "uint256",
                    "name": "tokenId",
                    "type": "uint256"
                },
                {
                    "internalType": "bytes",
                    "name": "data",
                    "type": "bytes"
                }
            ],
            "name": "safeTransferFrom",
            "outputs": [],
            "stateMutability": "nonpayable",
            "type": "function"
        },
        {
            "inputs": [
                {
                    "internalType": "address",
                    "name": "operator",
                    "type": "address"
                },
                {
                    "internalType": "bool",
                    "name": "approved",
                    "type": "bool"
                }
            ],
            "name": "setApprovalForAll",
            "outputs": [],
            "stateMutability": "nonpayable",
            "type": "function"
        },
        {
            "inputs": [
                {
                    "internalType": "uint256",
                    "name": "limit",
                    "type": "uint256"
                }
            ],
            "name": "setLimit",
            "outputs": [],
            "stateMutability": "nonpayable",
            "type": "function"
        },
        {
            "inputs": [
                {
                    "internalType": "uint256",
                    "name": "max_supply",
                    "type": "uint256"
                }
            ],
            "name": "setMaxSupply",
            "outputs": [],
            "stateMutability": "nonpayable",
            "type": "function"
        },
        {
            "inputs": [
                {
                    "internalType": "uint256",
                    "name": "price",
                    "type": "uint256"
                }
            ],
            "name": "setPrice",
            "outputs": [],
            "stateMutability": "nonpayable",
            "type": "function"
        },
        {
            "inputs": [
                {
                    "internalType": "bytes4",
                    "name": "interfaceId",
                    "type": "bytes4"
                }
            ],
            "name": "supportsInterface",
            "outputs": [
                {
                    "internalType": "bool",
                    "name": "",
                    "type": "bool"
                }
            ],
            "stateMutability": "view",
            "type": "function"
        },
        {
            "inputs": [],
            "name": "symbol",
            "outputs": [
                {
                    "internalType": "string",
                    "name": "",
                    "type": "string"
                }
            ],
            "stateMutability": "view",
            "type": "function"
        },
        {
            "inputs": [
                {
                    "internalType": "uint256",
                    "name": "tokenId",
                    "type": "uint256"
                }
            ],
            "name": "tokenURI",
            "outputs": [
                {
                    "internalType": "string",
                    "name": "",
                    "type": "string"
                }
            ],
            "stateMutability": "view",
            "type": "function"
        },
        {
            "inputs": [
                {
                    "internalType": "address",
                    "name": "from",
                    "type": "address"
                },
                {
                    "internalType": "address",
                    "name": "to",
                    "type": "address"
                },
                {
                    "internalType": "uint256",
                    "name": "tokenId",
                    "type": "uint256"
                }
            ],
            "name": "transferFrom",
            "outputs": [],
            "stateMutability": "nonpayable",
            "type": "function"
        },
        {
            "inputs": [
                {
                    "internalType": "address",
                    "name": "newOwner",
                    "type": "address"
                }
            ],
            "name": "transferOwnership",
            "outputs": [],
            "stateMutability": "nonpayable",
            "type": "function"
        },
        {
            "inputs": [],
            "name": "withdrawMoney",
            "outputs": [],
            "stateMutability": "nonpayable",
            "type": "function"
        }
    ],
    "bytecode": "0x6080604052655af3107a4000600c556002600d556005600e553480156200002557600080fd5b506040518060400160405280600a81526020017f436f6c6c656374696f6e000000000000000000000000000000000000000000008152506040518060400160405280600381526020017f4e465400000000000000000000000000000000000000000000000000000000008152508160009081620000a3919062000426565b508060019081620000b5919062000426565b505050620000d8620000cc620000de60201b60201c565b620000e660201b60201c565b6200050d565b600033905090565b6000600760009054906101000a900473ffffffffffffffffffffffffffffffffffffffff16905081600760006101000a81548173ffffffffffffffffffffffffffffffffffffffff021916908373ffffffffffffffffffffffffffffffffffffffff1602179055508173ffffffffffffffffffffffffffffffffffffffff168173ffffffffffffffffffffffffffffffffffffffff167f8be0079c531659141344cd1fd0a4f28419497f9722a3daafe3b4186f6b6457e060405160405180910390a35050565b600081519050919050565b7f4e487b7100000000000000000000000000000000000000000000000000000000600052604160045260246000fd5b7f4e487b7100000000000000000000000000000000000000000000000000000000600052602260045260246000fd5b600060028204905060018216806200022e57607f821691505b602082108103620002445762000243620001e6565b5b50919050565b60008190508160005260206000209050919050565b60006020601f8301049050919050565b600082821b905092915050565b600060088302620002ae7fffffffffffffffffffffffffffffffffffffffffffffffffffffffffffffffff826200026f565b620002ba86836200026f565b95508019841693508086168417925050509392505050565b6000819050919050565b6000819050919050565b60006200030762000301620002fb84620002d2565b620002dc565b620002d2565b9050919050565b6000819050919050565b6200032383620002e6565b6200033b62000332826200030e565b8484546200027c565b825550505050565b600090565b6200035262000343565b6200035f81848462000318565b505050565b5b8181101562000387576200037b60008262000348565b60018101905062000365565b5050565b601f821115620003d657620003a0816200024a565b620003ab846200025f565b81016020851015620003bb578190505b620003d3620003ca856200025f565b83018262000364565b50505b505050565b600082821c905092915050565b6000620003fb60001984600802620003db565b1980831691505092915050565b6000620004168383620003e8565b9150826002028217905092915050565b6200043182620001ac565b67ffffffffffffffff8111156200044d576200044c620001b7565b5b62000459825462000215565b620004668282856200038b565b600060209050601f8311600181146200049e576000841562000489578287015190505b62000495858262000408565b86555062000505565b601f198416620004ae866200024a565b60005b82811015620004d857848901518255600182019150602085019450602081019050620004b1565b86831015620004f85784890151620004f4601f891682620003e8565b8355505b6001600288020188555050505b505050505050565b613692806200051d6000396000f3fe60806040526004361061014b5760003560e01c8063715018a6116100b6578063ac4460021161006f578063ac4460021461047c578063b88d4fde14610493578063c87b56dd146104bc578063e985e9c5146104f9578063f2fde38b14610536578063fb37e8831461055f5761014b565b8063715018a614610392578063833b9499146103a95780638da5cb5b146103d457806391b7f5ed146103ff57806395d89b4114610428578063a22cb465146104535761014b565b806332cb6b0c1161010857806332cb6b0c14610270578063417bac1a1461029b57806342842e0e146102c65780636352211e146102ef5780636f8b44b01461032c57806370a08231146103555761014b565b806301ffc9a71461015057806306fdde031461018d578063081812fc146101b8578063095ea7b3146101f557806323b872dd1461021e57806327ea6f2b14610247575b600080fd5b34801561015c57600080fd5b50610177600480360381019061017291906121f6565b61058f565b604051610184919061223e565b60405180910390f35b34801561019957600080fd5b506101a2610671565b6040516101af91906122e9565b60405180910390f35b3480156101c457600080fd5b506101df60048036038101906101da9190612341565b610703565b6040516101ec91906123af565b60405180910390f35b34801561020157600080fd5b5061021c600480360381019061021791906123f6565b610749565b005b34801561022a57600080fd5b5061024560048036038101906102409190612436565b610860565b005b34801561025357600080fd5b5061026e60048036038101906102699190612341565b6108c0565b005b34801561027c57600080fd5b506102856108d2565b6040516102929190612498565b60405180910390f35b3480156102a757600080fd5b506102b06108d8565b6040516102bd9190612498565b60405180910390f35b3480156102d257600080fd5b506102ed60048036038101906102e89190612436565b6108de565b005b3480156102fb57600080fd5b5061031660048036038101906103119190612341565b6108fe565b60405161032391906123af565b60405180910390f35b34801561033857600080fd5b50610353600480360381019061034e9190612341565b610984565b005b34801561036157600080fd5b5061037c600480360381019061037791906124b3565b610996565b6040516103899190612498565b60405180910390f35b34801561039e57600080fd5b506103a7610a4d565b005b3480156103b557600080fd5b506103be610a61565b6040516103cb9190612498565b60405180910390f35b3480156103e057600080fd5b506103e9610a67565b6040516103f691906123af565b60405180910390f35b34801561040b57600080fd5b5061042660048036038101906104219190612341565b610a91565b005b34801561043457600080fd5b5061043d610aa3565b60405161044a91906122e9565b60405180910390f35b34801561045f57600080fd5b5061047a6004803603810190610475919061250c565b610b35565b005b34801561048857600080fd5b50610491610b4b565b005b34801561049f57600080fd5b506104ba60048036038101906104b59190612681565b610ba2565b005b3480156104c857600080fd5b506104e360048036038101906104de9190612341565b610c04565b6040516104f091906122e9565b60405180910390f35b34801561050557600080fd5b50610520600480360381019061051b9190612704565b610d16565b60405161052d919061223e565b60405180910390f35b34801561054257600080fd5b5061055d600480360381019061055891906124b3565b610daa565b005b610579600480360381019061057491906127e5565b610e2d565b6040516105869190612498565b60405180910390f35b60007f80ac58cd000000000000000000000000000000000000000000000000000000007bffffffffffffffffffffffffffffffffffffffffffffffffffffffff1916827bffffffffffffffffffffffffffffffffffffffffffffffffffffffff1916148061065a57507f5b5e139f000000000000000000000000000000000000000000000000000000007bffffffffffffffffffffffffffffffffffffffffffffffffffffffff1916827bffffffffffffffffffffffffffffffffffffffffffffffffffffffff1916145b8061066a5750610669826110d8565b5b9050919050565b6060600080546106809061285d565b80601f01602080910402602001604051908101604052809291908181526020018280546106ac9061285d565b80156106f95780601f106106ce576101008083540402835291602001916106f9565b820191906000526020600020905b8154815290600101906020018083116106dc57829003601f168201915b5050505050905090565b600061070e82611142565b6004600083815260200190815260200160002060009054906101000a900473ffffffffffffffffffffffffffffffffffffffff169050919050565b6000610754826108fe565b90508073ffffffffffffffffffffffffffffffffffffffff168373ffffffffffffffffffffffffffffffffffffffff16036107c4576040517f08c379a00000000000000000000000000000000000000000000000000000000081526004016107bb90612900565b60405180910390fd5b8073ffffffffffffffffffffffffffffffffffffffff166107e361118d565b73ffffffffffffffffffffffffffffffffffffffff16148061081257506108118161080c61118d565b610d16565b5b610851576040517f08c379a000000000000000000000000000000000000000000000000000000000815260040161084890612992565b60405180910390fd5b61085b8383611195565b505050565b61087161086b61118d565b8261124e565b6108b0576040517f08c379a00000000000000000000000000000000000000000000000000000000081526004016108a790612a24565b60405180910390fd5b6108bb8383836112e3565b505050565b6108c86115dc565b80600d8190555050565b600e5481565b600d5481565b6108f983838360405180602001604052806000815250610ba2565b505050565b60008061090a8361165a565b9050600073ffffffffffffffffffffffffffffffffffffffff168173ffffffffffffffffffffffffffffffffffffffff160361097b576040517f08c379a000000000000000000000000000000000000000000000000000000000815260040161097290612a90565b60405180910390fd5b80915050919050565b61098c6115dc565b80600e8190555050565b60008073ffffffffffffffffffffffffffffffffffffffff168273ffffffffffffffffffffffffffffffffffffffff1603610a06576040517f08c379a00000000000000000000000000000000000000000000000000000000081526004016109fd90612b22565b60405180910390fd5b600360008373ffffffffffffffffffffffffffffffffffffffff1673ffffffffffffffffffffffffffffffffffffffff168152602001908152602001600020549050919050565b610a556115dc565b610a5f6000611697565b565b600c5481565b6000600760009054906101000a900473ffffffffffffffffffffffffffffffffffffffff16905090565b610a996115dc565b80600c8190555050565b606060018054610ab29061285d565b80601f0160208091040260200160405190810160405280929190818152602001828054610ade9061285d565b8015610b2b5780601f10610b0057610100808354040283529160200191610b2b565b820191906000526020600020905b815481529060010190602001808311610b0e57829003601f168201915b5050505050905090565b610b47610b4061118d565b838361175d565b5050565b610b536115dc565b60003390508073ffffffffffffffffffffffffffffffffffffffff166108fc479081150290604051600060405180830381858888f19350505050158015610b9e573d6000803e3d6000fd5b5050565b610bb3610bad61118d565b8361124e565b610bf2576040517f08c379a0000000000000000000000000000000000000000000000000000000008152600401610be990612a24565b60405180910390fd5b610bfe848484846118c9565b50505050565b6060610c0f82611142565b6000600660008481526020019081526020016000208054610c2f9061285d565b80601f0160208091040260200160405190810160405280929190818152602001828054610c5b9061285d565b8015610ca85780601f10610c7d57610100808354040283529160200191610ca8565b820191906000526020600020905b815481529060010190602001808311610c8b57829003601f168201915b505050505090506000610cb9611925565b90506000815103610cce578192505050610d11565b600082511115610d03578082604051602001610ceb929190612b7e565b60405160208183030381529060405292505050610d11565b610d0c8461193c565b925050505b919050565b6000600560008473ffffffffffffffffffffffffffffffffffffffff1673ffffffffffffffffffffffffffffffffffffffff16815260200190815260200160002060008373ffffffffffffffffffffffffffffffffffffffff1673ffffffffffffffffffffffffffffffffffffffff16815260200190815260200160002060009054906101000a900460ff16905092915050565b610db26115dc565b600073ffffffffffffffffffffffffffffffffffffffff168173ffffffffffffffffffffffffffffffffffffffff1603610e21576040517f08c379a0000000000000000000000000000000000000000000000000000000008152600401610e1890612c14565b60405180910390fd5b610e2a81611697565b50565b600034600c541115610e74576040517f08c379a0000000000000000000000000000000000000000000000000000000008152600401610e6b90612c80565b60405180910390fd5b600d54600a60003373ffffffffffffffffffffffffffffffffffffffff1673ffffffffffffffffffffffffffffffffffffffff16815260200190815260200160002060009054906101000a900460ff1660ff1610610f07576040517f08c379a0000000000000000000000000000000000000000000000000000000008152600401610efe90612cec565b60405180910390fd5b600e546001610f1660096119a4565b610f209190612d3b565b1115610f61576040517f08c379a0000000000000000000000000000000000000000000000000000000008152600401610f5890612dbb565b60405180910390fd5b6000600b83604051610f739190612ddb565b908152602001604051809103902060009054906101000a900460ff1660ff1614610fd2576040517f08c379a0000000000000000000000000000000000000000000000000000000008152600401610fc990612e3e565b60405180910390fd5b6001600b83604051610fe49190612ddb565b908152602001604051809103902060008282829054906101000a900460ff1661100d9190612e6b565b92506101000a81548160ff021916908360ff1602179055506001600a60003373ffffffffffffffffffffffffffffffffffffffff1673ffffffffffffffffffffffffffffffffffffffff16815260200190815260200160002060008282829054906101000a900460ff166110819190612e6b565b92506101000a81548160ff021916908360ff1602179055506110a360086119b2565b6110ad60096119b2565b60006110b960086119a4565b90506110c533826119c8565b6110cf8184611be5565b80915050919050565b60007f01ffc9a7000000000000000000000000000000000000000000000000000000007bffffffffffffffffffffffffffffffffffffffffffffffffffffffff1916827bffffffffffffffffffffffffffffffffffffffffffffffffffffffff1916149050919050565b61114b81611c52565b61118a576040517f08c379a000000000000000000000000000000000000000000000000000000000815260040161118190612a90565b60405180910390fd5b50565b600033905090565b816004600083815260200190815260200160002060006101000a81548173ffffffffffffffffffffffffffffffffffffffff021916908373ffffffffffffffffffffffffffffffffffffffff160217905550808273ffffffffffffffffffffffffffffffffffffffff16611208836108fe565b73ffffffffffffffffffffffffffffffffffffffff167f8c5be1e5ebec7d5bd14f71427d1e84f3dd0314c0f7b2291e5b200ac8c7c3b92560405160405180910390a45050565b60008061125a836108fe565b90508073ffffffffffffffffffffffffffffffffffffffff168473ffffffffffffffffffffffffffffffffffffffff16148061129c575061129b8185610d16565b5b806112da57508373ffffffffffffffffffffffffffffffffffffffff166112c284610703565b73ffffffffffffffffffffffffffffffffffffffff16145b91505092915050565b8273ffffffffffffffffffffffffffffffffffffffff16611303826108fe565b73ffffffffffffffffffffffffffffffffffffffff1614611359576040517f08c379a000000000000000000000000000000000000000000000000000000000815260040161135090612f12565b60405180910390fd5b600073ffffffffffffffffffffffffffffffffffffffff168273ffffffffffffffffffffffffffffffffffffffff16036113c8576040517f08c379a00000000000000000000000000000000000000000000000000000000081526004016113bf90612fa4565b60405180910390fd5b6113d58383836001611c93565b8273ffffffffffffffffffffffffffffffffffffffff166113f5826108fe565b73ffffffffffffffffffffffffffffffffffffffff161461144b576040517f08c379a000000000000000000000000000000000000000000000000000000000815260040161144290612f12565b60405180910390fd5b6004600082815260200190815260200160002060006101000a81549073ffffffffffffffffffffffffffffffffffffffff02191690556001600360008573ffffffffffffffffffffffffffffffffffffffff1673ffffffffffffffffffffffffffffffffffffffff168152602001908152602001600020600082825403925050819055506001600360008473ffffffffffffffffffffffffffffffffffffffff1673ffffffffffffffffffffffffffffffffffffffff16815260200190815260200160002060008282540192505081905550816002600083815260200190815260200160002060006101000a81548173ffffffffffffffffffffffffffffffffffffffff021916908373ffffffffffffffffffffffffffffffffffffffff160217905550808273ffffffffffffffffffffffffffffffffffffffff168473ffffffffffffffffffffffffffffffffffffffff167fddf252ad1be2c89b69c2b068fc378daa952ba7f163c4a11628f55a4df523b3ef60405160405180910390a46115d78383836001611db9565b505050565b6115e461118d565b73ffffffffffffffffffffffffffffffffffffffff16611602610a67565b73ffffffffffffffffffffffffffffffffffffffff1614611658576040517f08c379a000000000000000000000000000000000000000000000000000000000815260040161164f90613010565b60405180910390fd5b565b60006002600083815260200190815260200160002060009054906101000a900473ffffffffffffffffffffffffffffffffffffffff169050919050565b6000600760009054906101000a900473ffffffffffffffffffffffffffffffffffffffff16905081600760006101000a81548173ffffffffffffffffffffffffffffffffffffffff021916908373ffffffffffffffffffffffffffffffffffffffff1602179055508173ffffffffffffffffffffffffffffffffffffffff168173ffffffffffffffffffffffffffffffffffffffff167f8be0079c531659141344cd1fd0a4f28419497f9722a3daafe3b4186f6b6457e060405160405180910390a35050565b8173ffffffffffffffffffffffffffffffffffffffff168373ffffffffffffffffffffffffffffffffffffffff16036117cb576040517f08c379a00000000000000000000000000000000000000000000000000000000081526004016117c29061307c565b60405180910390fd5b80600560008573ffffffffffffffffffffffffffffffffffffffff1673ffffffffffffffffffffffffffffffffffffffff16815260200190815260200160002060008473ffffffffffffffffffffffffffffffffffffffff1673ffffffffffffffffffffffffffffffffffffffff16815260200190815260200160002060006101000a81548160ff0219169083151502179055508173ffffffffffffffffffffffffffffffffffffffff168373ffffffffffffffffffffffffffffffffffffffff167f17307eab39ab6107e8899845ad3d59bd9653f200f220920489ca2b5937696c31836040516118bc919061223e565b60405180910390a3505050565b6118d48484846112e3565b6118e084848484611dbf565b61191f576040517f08c379a00000000000000000000000000000000000000000000000000000000081526004016119169061310e565b60405180910390fd5b50505050565b606060405180602001604052806000815250905090565b606061194782611142565b6000611951611925565b90506000815111611971576040518060200160405280600081525061199c565b8061197b84611f46565b60405160200161198c929190612b7e565b6040516020818303038152906040525b915050919050565b600081600001549050919050565b6001816000016000828254019250508190555050565b600073ffffffffffffffffffffffffffffffffffffffff168273ffffffffffffffffffffffffffffffffffffffff1603611a37576040517f08c379a0000000000000000000000000000000000000000000000000000000008152600401611a2e9061317a565b60405180910390fd5b611a4081611c52565b15611a80576040517f08c379a0000000000000000000000000000000000000000000000000000000008152600401611a77906131e6565b60405180910390fd5b611a8e600083836001611c93565b611a9781611c52565b15611ad7576040517f08c379a0000000000000000000000000000000000000000000000000000000008152600401611ace906131e6565b60405180910390fd5b6001600360008473ffffffffffffffffffffffffffffffffffffffff1673ffffffffffffffffffffffffffffffffffffffff16815260200190815260200160002060008282540192505081905550816002600083815260200190815260200160002060006101000a81548173ffffffffffffffffffffffffffffffffffffffff021916908373ffffffffffffffffffffffffffffffffffffffff160217905550808273ffffffffffffffffffffffffffffffffffffffff16600073ffffffffffffffffffffffffffffffffffffffff167fddf252ad1be2c89b69c2b068fc378daa952ba7f163c4a11628f55a4df523b3ef60405160405180910390a4611be1600083836001611db9565b5050565b611bee82611c52565b611c2d576040517f08c379a0000000000000000000000000000000000000000000000000000000008152600401611c2490613278565b60405180910390fd5b80600660008481526020019081526020016000209081611c4d9190613444565b505050565b60008073ffffffffffffffffffffffffffffffffffffffff16611c748361165a565b73ffffffffffffffffffffffffffffffffffffffff1614159050919050565b6001811115611db357600073ffffffffffffffffffffffffffffffffffffffff168473ffffffffffffffffffffffffffffffffffffffff1614611d275780600360008673ffffffffffffffffffffffffffffffffffffffff1673ffffffffffffffffffffffffffffffffffffffff1681526020019081526020016000206000828254611d1f9190613516565b925050819055505b600073ffffffffffffffffffffffffffffffffffffffff168373ffffffffffffffffffffffffffffffffffffffff1614611db25780600360008573ffffffffffffffffffffffffffffffffffffffff1673ffffffffffffffffffffffffffffffffffffffff1681526020019081526020016000206000828254611daa9190612d3b565b925050819055505b5b50505050565b50505050565b6000611de08473ffffffffffffffffffffffffffffffffffffffff16612014565b15611f39578373ffffffffffffffffffffffffffffffffffffffff1663150b7a02611e0961118d565b8786866040518563ffffffff1660e01b8152600401611e2b949392919061359f565b6020604051808303816000875af1925050508015611e6757506040513d601f19601f82011682018060405250810190611e649190613600565b60015b611ee9573d8060008114611e97576040519150601f19603f3d011682016040523d82523d6000602084013e611e9c565b606091505b506000815103611ee1576040517f08c379a0000000000000000000000000000000000000000000000000000000008152600401611ed89061310e565b60405180910390fd5b805181602001fd5b63150b7a0260e01b7bffffffffffffffffffffffffffffffffffffffffffffffffffffffff1916817bffffffffffffffffffffffffffffffffffffffffffffffffffffffff191614915050611f3e565b600190505b949350505050565b606060006001611f5584612037565b01905060008167ffffffffffffffff811115611f7457611f73612556565b5b6040519080825280601f01601f191660200182016040528015611fa65781602001600182028036833780820191505090505b509050600082602001820190505b600115612009578080600190039150507f3031323334353637383961626364656600000000000000000000000000000000600a86061a8153600a8581611ffd57611ffc61362d565b5b04945060008503611fb4575b819350505050919050565b6000808273ffffffffffffffffffffffffffffffffffffffff163b119050919050565b600080600090507a184f03e93ff9f4daa797ed6e38ed64bf6a1f0100000000000000008310612095577a184f03e93ff9f4daa797ed6e38ed64bf6a1f010000000000000000838161208b5761208a61362d565b5b0492506040810190505b6d04ee2d6d415b85acef810000000083106120d2576d04ee2d6d415b85acef810000000083816120c8576120c761362d565b5b0492506020810190505b662386f26fc10000831061210157662386f26fc1000083816120f7576120f661362d565b5b0492506010810190505b6305f5e100831061212a576305f5e10083816121205761211f61362d565b5b0492506008810190505b612710831061214f5761271083816121455761214461362d565b5b0492506004810190505b6064831061217257606483816121685761216761362d565b5b0492506002810190505b600a8310612181576001810190505b80915050919050565b6000604051905090565b600080fd5b600080fd5b60007fffffffff0000000000000000000000000000000000000000000000000000000082169050919050565b6121d38161219e565b81146121de57600080fd5b50565b6000813590506121f0816121ca565b92915050565b60006020828403121561220c5761220b612194565b5b600061221a848285016121e1565b91505092915050565b60008115159050919050565b61223881612223565b82525050565b6000602082019050612253600083018461222f565b92915050565b600081519050919050565b600082825260208201905092915050565b60005b83811015612293578082015181840152602081019050612278565b60008484015250505050565b6000601f19601f8301169050919050565b60006122bb82612259565b6122c58185612264565b93506122d5818560208601612275565b6122de8161229f565b840191505092915050565b6000602082019050818103600083015261230381846122b0565b905092915050565b6000819050919050565b61231e8161230b565b811461232957600080fd5b50565b60008135905061233b81612315565b92915050565b60006020828403121561235757612356612194565b5b60006123658482850161232c565b91505092915050565b600073ffffffffffffffffffffffffffffffffffffffff82169050919050565b60006123998261236e565b9050919050565b6123a98161238e565b82525050565b60006020820190506123c460008301846123a0565b92915050565b6123d38161238e565b81146123de57600080fd5b50565b6000813590506123f0816123ca565b92915050565b6000806040838503121561240d5761240c612194565b5b600061241b858286016123e1565b925050602061242c8582860161232c565b9150509250929050565b60008060006060848603121561244f5761244e612194565b5b600061245d868287016123e1565b935050602061246e868287016123e1565b925050604061247f8682870161232c565b9150509250925092565b6124928161230b565b82525050565b60006020820190506124ad6000830184612489565b92915050565b6000602082840312156124c9576124c8612194565b5b60006124d7848285016123e1565b91505092915050565b6124e981612223565b81146124f457600080fd5b50565b600081359050612506816124e0565b92915050565b6000806040838503121561252357612522612194565b5b6000612531858286016123e1565b9250506020612542858286016124f7565b9150509250929050565b600080fd5b600080fd5b7f4e487b7100000000000000000000000000000000000000000000000000000000600052604160045260246000fd5b61258e8261229f565b810181811067ffffffffffffffff821117156125ad576125ac612556565b5b80604052505050565b60006125c061218a565b90506125cc8282612585565b919050565b600067ffffffffffffffff8211156125ec576125eb612556565b5b6125f58261229f565b9050602081019050919050565b82818337600083830152505050565b600061262461261f846125d1565b6125b6565b9050828152602081018484840111156126405761263f612551565b5b61264b848285612602565b509392505050565b600082601f8301126126685761266761254c565b5b8135612678848260208601612611565b91505092915050565b6000806000806080858703121561269b5761269a612194565b5b60006126a9878288016123e1565b94505060206126ba878288016123e1565b93505060406126cb8782880161232c565b925050606085013567ffffffffffffffff8111156126ec576126eb612199565b5b6126f887828801612653565b91505092959194509250565b6000806040838503121561271b5761271a612194565b5b6000612729858286016123e1565b925050602061273a858286016123e1565b9150509250929050565b600067ffffffffffffffff82111561275f5761275e612556565b5b6127688261229f565b9050602081019050919050565b600061278861278384612744565b6125b6565b9050828152602081018484840111156127a4576127a3612551565b5b6127af848285612602565b509392505050565b600082601f8301126127cc576127cb61254c565b5b81356127dc848260208601612775565b91505092915050565b6000602082840312156127fb576127fa612194565b5b600082013567ffffffffffffffff81111561281957612818612199565b5b612825848285016127b7565b91505092915050565b7f4e487b7100000000000000000000000000000000000000000000000000000000600052602260045260246000fd5b6000600282049050600182168061287557607f821691505b6020821081036128885761288761282e565b5b50919050565b7f4552433732313a20617070726f76616c20746f2063757272656e74206f776e6560008201527f7200000000000000000000000000000000000000000000000000000000000000602082015250565b60006128ea602183612264565b91506128f58261288e565b604082019050919050565b60006020820190508181036000830152612919816128dd565b9050919050565b7f4552433732313a20617070726f76652063616c6c6572206973206e6f7420746f60008201527f6b656e206f776e6572206f7220617070726f76656420666f7220616c6c000000602082015250565b600061297c603d83612264565b915061298782612920565b604082019050919050565b600060208201905081810360008301526129ab8161296f565b9050919050565b7f4552433732313a2063616c6c6572206973206e6f7420746f6b656e206f776e6560008201527f72206f7220617070726f76656400000000000000000000000000000000000000602082015250565b6000612a0e602d83612264565b9150612a19826129b2565b604082019050919050565b60006020820190508181036000830152612a3d81612a01565b9050919050565b7f4552433732313a20696e76616c696420746f6b656e2049440000000000000000600082015250565b6000612a7a601883612264565b9150612a8582612a44565b602082019050919050565b60006020820190508181036000830152612aa981612a6d565b9050919050565b7f4552433732313a2061646472657373207a65726f206973206e6f74206120766160008201527f6c6964206f776e65720000000000000000000000000000000000000000000000602082015250565b6000612b0c602983612264565b9150612b1782612ab0565b604082019050919050565b60006020820190508181036000830152612b3b81612aff565b9050919050565b600081905092915050565b6000612b5882612259565b612b628185612b42565b9350612b72818560208601612275565b80840191505092915050565b6000612b8a8285612b4d565b9150612b968284612b4d565b91508190509392505050565b7f4f776e61626c653a206e6577206f776e657220697320746865207a65726f206160008201527f6464726573730000000000000000000000000000000000000000000000000000602082015250565b6000612bfe602683612264565b9150612c0982612ba2565b604082019050919050565b60006020820190508181036000830152612c2d81612bf1565b9050919050565b7f4574686572207061696420697320696e636f7272656374000000000000000000600082015250565b6000612c6a601783612264565b9150612c7582612c34565b602082019050919050565b60006020820190508181036000830152612c9981612c5d565b9050919050565b7f596f752068617665206578636565646564206d696e74696e67206c696d697400600082015250565b6000612cd6601f83612264565b9150612ce182612ca0565b602082019050919050565b60006020820190508181036000830152612d0581612cc9565b9050919050565b7f4e487b7100000000000000000000000000000000000000000000000000000000600052601160045260246000fd5b6000612d468261230b565b9150612d518361230b565b9250828201905080821115612d6957612d68612d0c565b5b92915050565b7f596f752068617665206578636565646564204d617820537570706c7900000000600082015250565b6000612da5601c83612264565b9150612db082612d6f565b602082019050919050565b60006020820190508181036000830152612dd481612d98565b9050919050565b6000612de78284612b4d565b915081905092915050565b7f54686973204e46542068617320616c7265616479206265656e206d696e746564600082015250565b6000612e28602083612264565b9150612e3382612df2565b602082019050919050565b60006020820190508181036000830152612e5781612e1b565b9050919050565b600060ff82169050919050565b6000612e7682612e5e565b9150612e8183612e5e565b9250828201905060ff811115612e9a57612e99612d0c565b5b92915050565b7f4552433732313a207472616e736665722066726f6d20696e636f72726563742060008201527f6f776e6572000000000000000000000000000000000000000000000000000000602082015250565b6000612efc602583612264565b9150612f0782612ea0565b604082019050919050565b60006020820190508181036000830152612f2b81612eef565b9050919050565b7f4552433732313a207472616e7366657220746f20746865207a65726f2061646460008201527f7265737300000000000000000000000000000000000000000000000000000000602082015250565b6000612f8e602483612264565b9150612f9982612f32565b604082019050919050565b60006020820190508181036000830152612fbd81612f81565b9050919050565b7f4f776e61626c653a2063616c6c6572206973206e6f7420746865206f776e6572600082015250565b6000612ffa602083612264565b915061300582612fc4565b602082019050919050565b6000602082019050818103600083015261302981612fed565b9050919050565b7f4552433732313a20617070726f766520746f2063616c6c657200000000000000600082015250565b6000613066601983612264565b915061307182613030565b602082019050919050565b6000602082019050818103600083015261309581613059565b9050919050565b7f4552433732313a207472616e7366657220746f206e6f6e20455243373231526560008201527f63656976657220696d706c656d656e7465720000000000000000000000000000602082015250565b60006130f8603283612264565b91506131038261309c565b604082019050919050565b60006020820190508181036000830152613127816130eb565b9050919050565b7f4552433732313a206d696e7420746f20746865207a65726f2061646472657373600082015250565b6000613164602083612264565b915061316f8261312e565b602082019050919050565b6000602082019050818103600083015261319381613157565b9050919050565b7f4552433732313a20746f6b656e20616c7265616479206d696e74656400000000600082015250565b60006131d0601c83612264565b91506131db8261319a565b602082019050919050565b600060208201905081810360008301526131ff816131c3565b9050919050565b7f45524337323155524953746f726167653a2055524920736574206f66206e6f6e60008201527f6578697374656e7420746f6b656e000000000000000000000000000000000000602082015250565b6000613262602e83612264565b915061326d82613206565b604082019050919050565b6000602082019050818103600083015261329181613255565b9050919050565b60008190508160005260206000209050919050565b60006020601f8301049050919050565b600082821b905092915050565b6000600883026132fa7fffffffffffffffffffffffffffffffffffffffffffffffffffffffffffffffff826132bd565b61330486836132bd565b95508019841693508086168417925050509392505050565b6000819050919050565b600061334161333c6133378461230b565b61331c565b61230b565b9050919050565b6000819050919050565b61335b83613326565b61336f61336782613348565b8484546132ca565b825550505050565b600090565b613384613377565b61338f818484613352565b505050565b5b818110156133b3576133a860008261337c565b600181019050613395565b5050565b601f8211156133f8576133c981613298565b6133d2846132ad565b810160208510156133e1578190505b6133f56133ed856132ad565b830182613394565b50505b505050565b600082821c905092915050565b600061341b600019846008026133fd565b1980831691505092915050565b6000613434838361340a565b9150826002028217905092915050565b61344d82612259565b67ffffffffffffffff81111561346657613465612556565b5b613470825461285d565b61347b8282856133b7565b600060209050601f8311600181146134ae576000841561349c578287015190505b6134a68582613428565b86555061350e565b601f1984166134bc86613298565b60005b828110156134e4578489015182556001820191506020850194506020810190506134bf565b8683101561350157848901516134fd601f89168261340a565b8355505b6001600288020188555050505b505050505050565b60006135218261230b565b915061352c8361230b565b925082820390508181111561354457613543612d0c565b5b92915050565b600081519050919050565b600082825260208201905092915050565b60006135718261354a565b61357b8185613555565b935061358b818560208601612275565b6135948161229f565b840191505092915050565b60006080820190506135b460008301876123a0565b6135c160208301866123a0565b6135ce6040830185612489565b81810360608301526135e08184613566565b905095945050505050565b6000815190506135fa816121ca565b92915050565b60006020828403121561361657613615612194565b5b6000613624848285016135eb565b91505092915050565b7f4e487b7100000000000000000000000000000000000000000000000000000000600052601260045260246000fdfea264697066735822122033f98ab812b1ff1203296ca3daa5ecdd1ed03bb5a4a27a80e1b1441d472774f864736f6c63430008110033",
    "linkReferences": {},
    "deployedLinkReferences": {}
}